:10186500012200012A01013301C101C182022300C5
:011875000072
:10080000C2AC433440907F9D74FFF0907F97E534F5
:10081000F0907F98E054DFF0E04420F0E4907F9D7A
:10082000F022E51025E02414F582E43422F583E07B
:10083000FEA3E0FFE50F25E02400F582E43420F577
:100840008322907F9D74FFF0907F97E511F0907F59
:1008500098E022E523907E85F0A3E524F0C2059080
:100860007FB77408F022907F9D74FFF0E4907F972B
:10087000F0907F98E022907F98E0547FF0E044E091
:10088000F0E02275F005EF1206C2EE75F005A42522
:1008900083F58322907DC2E0FE907DC1E07C002440
:1008A00000FFEC3EFE22E4F52BF52CF535F5362263
:1008B000E513FAE50F75F008A42400FFE5F03AFE11
:1008C000ED7A002F2274FFF0907F97E543F0907F40
:1008D00098E054FEF0E0440122AF3AAE39AD38ACB6
:1008E0003722907F9AE0F512907F98E044E0F02262
:1008F000AF0D74C12FF582E4347DF583E0FE225400
:100900001FF0E044E022543FF0E044E022545FF066
:10091000E044E022AB3AAA39A938A837C30206B1AD
:1009200025E02414F582E43422F58322E512C31372
:10093000F5120CEC640822E51125E04401F5110DD7
:10094000ED22E52C2401FFE4352BFEEF22907F9869
:10095000E0549F22907F98E054BF22E51075F00884
:05096000A42CF5132298
:10132800907FA1E04401F0E4907F93F0907F94F0E7
:10133800907F957402F0907F9C7410F0E4907F9DEC
:10134800F0907F9E74F3F0907F967410F0907F98E1
:1013580074E1F0758920758DCCD28E759840C2AC39
:10136800538EDF75CBB175CADF75C804D2AD1218BC
:0E13780095907F98E04410F012174A021386F9
:10138600C206D200C2AC7534CF12080575430312EB
:1013960008C512081B74FFF012086D1208FF120828
:1013A6001B74FFF012086D12090612081B74FFF079
:1013B60012086D12090D12081B1208A7F53AF53925
:1013C600F538F537D20B121000E4FFFE7E08907D4B
:0C13D60080E4F0A3DEFC907FBB7408F004
:0113E20022E8
:100C0B00E5226003120965C208C209C20AC3E53AAC
:100C1B009542FFE5399541FEE5389540FDE5379561
:100C2B003FFCE47B01FAF9F8D31206B15002D2086B
:100C3B00AF3EAE3DAD3CAC3B1209146002D209C3D2
:100C4B00E53A9547FFE5399546FEE5389545FDE5CF
:100C5B00379544FCE47B0AFAF9F8D31206B150023B
:100C6B00D20A300813E4F531F5321208D98F428ECF
:100C7B00418D408C3F120D54300614300011300959
:100C8B000E1208D98F3E8E3D8D3C8C3B1214A93031
:100C9B000613300A101208D98F478E468D458C44A7
:100CAB00C20B12100030AC10AF28AE27AD26AC250E
:100CBB001209144003120800200502A153C2073089
:100CCB000125C201E536652C7004E535652B600402
:100CDB00D2078025907E807433F00524E5247002C2
:100CEB0005231208538012E533700EE536652C7020
:100CFB0004E535652B6002D20730074CAE35AF36B5
:100D0B007C007D0512069F74202FF974203EFA7B20
:100D1B0001C002C0017A7E798078807C7E7D01D013
:100D2B0001D0027E007F051206110536E5367002F2
:100D3B000535AE3564644E7004F535F5360524E59E
:080D4B00247002052312085375
:010D5300227D
:10180000300009E4FB7D017F3A02124FE4FBFD7FCB
:051810003A12124F2204
:100F8E0030005BE536652C7004E535652B704FE45B
:100F9E00F50EE50EC39530501CE50E120836E0FC3A
:100FAE00A3E0FDECF510EDF50FFBAD107F3E121238
:100FBE004F050E80DD907F9BE020E3097B017D01D4
:100FCE007F3F12124F907F9BE020E2097B017D0252
:0E0FDE007F3F12124F7B017D027F4012124FA7
:010FEC0022E2
:10096500907DC0E014B41600400241B5900977258A
:10097500E073411221C321F621BE21B54105411D78
:10098500412721B9412C4122413141B541B521D001
:1009950021AA21AE21A341B541B5413D416CD20B00
:1009A50012100041B5D20241B51208A6C20241B5E6
:1009B500D20141B512180041B51212C941B5907D59
:1009C500C1E0FFA3E0FD1211C941B5E4F50CF50D39
:1009D500E50D04FF907DC1E0FD1211C9050DE50D82
:1009E5007002050CC39409E50C6480948040E141D4
:1009F500B5907DC1E060051215D441B5C20641B57B
:100A0500D202121386907DC1E0F53341B5E4FB7D3A
:100A1500027F3812124F41B51216F841B512166B06
:100A250041B512179141B5120F8E41B51208A6C2F4
:100A350002D20B12145841B5E4F50CF50D1208F06D
:100A450074802FF582E4347DF583EEF0050DE50D18
:100A55007002050C6407450C70E3E4907D87F09007
:100A65007FBB7408F08049E4F50CF50D1208F074AD
:100A7500002FF582E4347DF583EEF0050DE50D706C
:100A850002050C6403450C70E3750C00750D0374C9
:100A950000250DF582E4347DF583E4F0050DE50DC3
:100AA5007002050C6408450C70E5907FBD7403F079
:070AB500E4F522907FC9F077
:010ABC002217
:1015D400E4F529F530C203C204F542F541F540F5BE
:1015E4003FF53EF53DF53CF53BF547F546F545F54C
:1015F40044FF7F03782DE4F608DFFC1208A6D20628
:03160400021800C9
:0211C900A90576
:1011CB00EF6401700EE9600553347F800343348074
:1011DB00020805EF24FEB4080050349011EC25E012
:1011EB007321FC410041044108410C411041144161
:1011FB00187E40801A7E8080167E0180127E1080C1
:10120B000E7E20800A7E0280067E0480027E08E924
:10121B006015EF64046003BF07086306FFEE5243DB
:10122B008018EE42438013EF64046003BF0705EEA2
:10123B00424380066306FFEE5243907F9D1208C522
:03124B0012081B6B
:01124E00227D
:03002000020800D3
:1012C900907DC2E06055907DC1E0F58D53348FA3C8
:1012D900E024FE600C14600E2402700D433430804B
:1012E900084334208003433410120805907DC3E07D
:1012F9006019E0FFE4EF253AF528E43539F527E4EC
:101309003538F526E43537F525800A74FFF528F5D3
:0F13190027F526F525D2AC759955221200202212
:0300230002189D23
:07189D005398FD75995532C7
:03002B00021607B3
:10160700C0E0C0D075D000C004C005C006C007C286
:10161700CF1208D9EF2401F53AE43EF539E43DF558
:1016270038E43CF537D007D006D005D004D0D0D069
:02163700E0329F
:02000300AA064B
:10000500EA902254F0EFA3F0A3EDF07A227B547D21
:0B001500037F5112175B7F510215356D
:0A156B008E0E8F0F8D108A118B1267
:10157500E4F513E513C395105020050FE50FAE0EE6
:101585007002050E14FFE5122513F582E43511F5F9
:0A15950083E0FD120003051380D966
:01159F002229
:0A07D7008E0E8F0F8D108A118B1209
:1007E100E50E902254F0EFA3F07A227B547D027F34
:0F07F1005112175BAB12AA11AD107F510213E327
:100D5400E4F530F50CE50C146018146026240270D8
:100D6400311208661208FF12081B5334F4120808E3
:100D7400802012086612090612081B5334F5120863
:100D840008800F12086612090D12081B5334F6125C
:100D94000808E4F50DE50D14600F146017240270C3
:100DA4001C120876547FF0801412094D12087C54EA
:100DB4009FF0800912095412087C54BFF0907F9A66
:100DC400E0FF1208E8EFF46007AD0DAF0C120375F5
:100DD400050DE50DC3940340BC43340F120805050B
:100DE4000CE50CC394035002A159E4FDFCECC3953B
:100DF400305016EC120836E0FFEC120836E0A3E09F
:100E0400F50EEF70010D0C80E4EDC39408400F3033
:100E14000008E4FBFD7F3A12124FC200801120004B
:100E24000C1215D4E4FB7D017F3A12124FD200302C
:080E34000606300003120E3D1A
:010E3C002293
:040375008F0F8D1049
:100379007511FEE4FDE50F14601214601A24027071
:100389001F1208421208FF12081B80141208421299
:10039900090612081B800912084212090D12081BCE
:1003A900E51014600F1460172402701C12087654AB
:1003B9007FF0801412094D12087C549FF0800912B5
:1003C900095412087C54BFF01208E2E512F4604C9B
:1003D900E4FCE51220E040E530C394105039E51003
:1003E9006009B4010BECC39404500512095B801336
:1003F900E510B40108C3741B9CF5138006C374137C
:100409009CF5131208B0FFEA3EFEAB300530EB1243
:100419000836EEF0A3EFF012092C70B61209376412
:10042900086002617E7511FCE4FDE50F1460121489
:10043900601A2402701F1208421208FF12081B805A
:100449001412084212090612081B800912084212E6
:10045900090D12081BE51014600F146017240270AF
:100469001C120876547FF0801412094D12087C542E
:100479009FF0800912095412087C54BFF01208E257
:10048900E512F47002A137E4FCE51230E002A13074
:10049900E5106009B4010BECC39404500512095B23
:1004A9008013E510B40108C3741B9CF5138006C3BF
:1004B90074139CF5131208B0F515EA3EF514E4F926
:1004C900E9C395305026E9120836E0FEA3E0FF653E
:1004D900157003EE65146014E5152401FBE4351469
:1004E900FAEF6B7002EE6A60030980D4E965307037
:1004F90036E5302402FFE433FED3EF9410EE648036
:1005090094805023AF300530EF120836E514F0A37C
:10051900E515F02401FFE43514FEAB300530EB128C
:100529000836EEF0A3EFF012092C6002819212094D
:070539003764076002813303
:010540002298
:100E3D00E4F50FE50FC395305038E4F511F510E5E5
:100E4D0010C395295015120822E0FCA3E0B5070741
:100E5D00ECB50603751101051080E4E511700F1254
:100E6D000834E0FAA3E0FBEAFD7F3412124F050FC0
:100E7D0080C1E4F510E510C39529503AE4F511F55C
:100E8D000FE50FC395305015120822E0FCA3E0B515
:100E9D000707ECB50603751101050F80E4E5117028
:100EAD0011E510120920E0FAA3E0FBEAFD7F3512EF
:100EBD00124F051080BFE4F50FE50FC395305016A6
:100ECD00120834E0FEA3E0FFE50F120920EEF0A3B7
:090EDD00EFF0050F80E3853029D8
:010EE60022E9
:10124F00AC0730027412094265367003EE653560E3
:10125F006812094264644E7006E5364535605AAE31
:10126F002BAF2C902020120883ECF0AE2BAF2C90DC
:10127F002021120883EDF0AE2BAF2C902022120804
:10128F0083EBF0AE39AF3AAC2BAD2C90202375F039
:10129F0005ED1206C2EC12088BEEF0A3EFF0052C51
:1012AF00E52C7002052BAE2B64644E7004F52BF504
:0A12BF002C0532E5327002053122E1
:1014A900907F9BE030E304C20B8002D20BA2033091
:1014B9000B01B35010A20BE433FB7D017F361212EE
:1014C9004FA20B9203907F9BE030E204C20B800293
:1014D900D20BA204300B01B35010A20BE433FB7DF5
:0A14E900027F3612124FA20B92048C
:0114F30022D6
:10100000E4FAEA44F052341208057403F0907F9732
:10101000E054FCF0907F96E054EFF0AF02E4F9FE6C
:10102000E925E0F9907F9AE030E203430101EF30D7
:10103000E309907F97E04402F08007907F97E054A7
:10104000FDF0EF25E0FF907F97E04401F0E054FED3
:10105000F00EBE08CBEA602B242CF8E6FFD39940B3
:1010600005EF99FE8004C3E99FFEEEC3952A500365
:10107000300B10EA14FDAB017F3712124F742C2A8B
:10108000F8A601907F99E030E5F9907F96E0441052
:1010900012081B43340F1208080AEA6404600201B4
:0110A000024D
:0110A100222C
:10166B0030052D120894907E807441F07A7E7B8138
:10167B007D011207D7907DC1E0907E82F0907DC2F4
:10168B00E0907E83F00524E52470020523120853B5
:01169B00222C
:1016F80030051D120894907E807439F07A7E7B81C3
:101708007D071207D70524E5247002052312085324
:0117180022AE
:10179100120894D3EF9406EE9400400C907DC3E0C0
:0817A100FD7A7D7BC412156B7B
:0117A900221D
:1010A200907FECE0F45480FFC4540FFFE054072F0C
:1010B20025E024B4F582E4347FF58322907FB4E006
:1010C2004401F022FF74002512F582E4347FF58397
:1010D200EFF0E5122401F512E43511F511E43510B3
:1010E200F510E4350FF50F22907F00F0E4A3F090A5
:1010F2007FB57402F022907FECE025E024B9F582FE
:10110200E4340BF583E49322E4FCFDFEAB12AA1156
:10111200A910A80FC30206B1AA06A9077B018B0C6E
:101122008A0D890EEA4922E4F50BF50AF509F5085C
:0B11320022E4F512F511F510F50F2274
:100EE7001211297FE87E031217DBC20FC20CC20E54
:100EF700C20D121328754B0A754CBD754F0A7550F4
:100F0700CF75520B7553BFD2E843D820907FAFE01F
:100F17004401F0907FAEE0441DF0D2AF200D3B209E
:100F27000D05D20B1214581211297F407E927D04B1
:100F37007C00AB0BAA0AA909A808C31206B150DCAA
:100F4700200DD9E50B2401F50BE4350AF50AE43544
:100F570009F509E43508F50880D0538EF8300D05FA
:100F670012004EC20D300F1A12169C5015C20F12E6
:100F7700173A200C07907FD6E020E7F31217771275
:070F87000036120C0B80D6AE
:10004E00907FE8E06421705EA3E024F7704DE490A9
:10005E007FC5F0907FAAE030E0F9907FECE070274A
:10006E00FF74C02FF582E4347EF583E0FE74C02F5A
:10007E00F582E4347DF583EEF00FBF08E4907FAA9D
:10008E007401F0F5228017907FECE0B40108907EA9
:10009E00C0E0F54A80081210BE80031210BE907F99
:1000AE00B4E04402F022907FE9E07002419E1470A9
:1000BE000241E024FE7002613124FB70024199146A
:1000CE0070024149147002413F14700241442405EC
:1000DE006002616512002E4002616D907FEBE0249C
:1000EE00FE602214603D24E270024127147002214A
:1000FE00C624216002413AE54B907FD4F0E54C9046
:10010E007FD5F0616D907FEAE0FF1214F412111AA0
:10011E00600CEE907FD4F0EF907FD5F0616D1210F1
:10012E00BE616D907FEAE0FF1216CC12111A7002BA
:02013E0021C1DD
:10014000AB0C8B138A148915120637F516907FEEC7
:10015000E0FFE516D39F4003E0F516E51660551263
:100160001133E516C394405004AF1680027F40124D
:10017000110A5012E5152512F582E5143511F583A3
:10018000E01210C680DCE516C394405004AF168020
:10019000027F40907FB5EFF0E516C394405004AF66
:1001A0001680027F40C3E5169FF516907FB4E030BD
:0F01B000E2A980F7E4907FB5F0907FB47402F07D
:0701BF00616D1210BE616DBD
:1001C600907FECE025E024B0F582E4340BF583E47F
:1001D60093FE7401938E13F514907FECE0900BB6AA
:1001E60093F551907FEEE0FFE551D39F4003E0F594
:1001F60051121133AF5112110A501585148285130D
:1002060083E4931210C60514E51470E8051380E420
:10021600907FB5E551F0907FB4E020E202616D80F9
:01022600F5E2
:100227001210F8907FD4F01210F8740193907FD5D4
:10023700F0616D1210BE616D121877616D12188D25
:10024700616D121885907FEAE0701E907FDEE054A2
:10025700E5F0907FDFE054F3F0907FACE054FDF0E1
:10026700907FADE054F3F0616D907FDEE0441AF0CB
:10027700907FDFE0440CF0907FACE04402F0907F89
:10028700ADE0440CF0E4907FC9F0907FCBF0D2054D
:10029700616D1217F2616D1200304002616D907F3F
:1002A700E8E0247F601914602024027027A20CE480
:1002B70033FF25E0FFA20EE4334F1210EA616DE42D
:1002C700907F00F01210EF616D1210A2E05401123E
:1002D70010EA616D1210BE616D1200464002616D39
:1002E700907FE8E024FE60142402707A907FEAE0B1
:1002F700B40104C20C616D1210BE616D907FEAE01B
:1003070070231210A2E4F0907FECE05480FF1313E7
:0C03170013541FFFE054072F907FD7F015
:03032300E4F513EB
:10032600E04420F080411210BE803C120048503755
:10033600907FE8E024FE60142402702B907FEAE0B0
:10034600B40104D20C80201210BE801B907FEAE01C
:1003560070081210A27401F0800D1210BE800812EF
:0E03660018AB50031210BE907FB4E04402F0BA
:010374002266
:03003300020026A2
:0400260053D8EF328A
:0718A4005391EF907FAB228E
:10169C00120020E4F50CF50DE50D04FFE4FD12112C
:1016AC00C9050DE50D7002050CC39409E50C6480A9
:0F16BC00948040E4907F98E054EFF012174AD3E7
:0116CB0022FC
:0C003600907F98E04410F012174AD3228B
:02002E00D322DB
:08188500907FEAE0F51BD3227D
:0E17F200907F00E51BF0907FB57401F0D322CC
:08188D00907FEAE0F519D32277
:0E187700907F00E519F0907FB57401F0D32248
:02003000D322D9
:02004600D322C3
:02004800D322C1
:0218AB00D32246
:10181500C0E0C083C082D20D1218A47401F0D0823A
:05182500D083D0E03289
:100FED00C0E0C083C0821218A47404F0D082D083F4
:030FFD00D0E0320F
:10183F00C0E0C083C0821218A47402F0D082D0839B
:03184F00D0E032B4
:10185200C0E0C083C0821218A47410F0D082D0837A
:03186200D0E032A1
:01002A0032A3
:10182A00C0E0C083C082D20F1218A47408F0D0821C
:05183A00D083D0E03274
:01003200329B
:01004200328B
:1017C300C0E0C083C082D2055391EF907FA9740219
:0817D300F0D082D083D0E03297
:01004A003283
:0113FF0032BB
:1017AA00C0E0C083C0827522015391EF907FAA7472
:0917BA0004F0D082D083D0E032AB
:0118AD003208
:10171900C0E0C083C082907D40E0F54A5391EF90CC
:101729007FAA7408F0907FCBE4F0D082D083D0E018
:01173900327D
:0118AE003207
:0118AF003206
:0118B0003205
:0118B1003204
:0118B2003203
:0118B3003202
:0118B4003201
:0118B5003200
:03004300021400A4
:101400000218150002183F00020FED0002182A0012
:101410000218520002002A000200320002004200BC
:101420000217C30002004A000213FF000217AA00BD
:101430000218AD00021719000218AE000218AF0022
:101440000218B0000218B1000218B2000218B3006E
:081450000218B4000218B500F7
:10177700907FD6E030E712E04401F07F147E00123C
:0A17870017DB907FD6E054FEF0223D
:10173A00907FD6E04480F043870100000000002239
:07145800907FD6E04408F08C
:03145F00E4F50EA3
:04146200E054FBF067
:03146600E4F50E9C
:10146900E04408F0300B04E04402F07FDC7E051212
:1014790017DB907F92E030E3077FDC7E051217DBF4
:10148900907FAB74FFF0907FA9F0907FAAF0539101
:08149900EF907FD6E054F7F05C
:0314A100E4F50E61
:0514A400E04404F02209
:10174A007400F58690FDA57C05A3E582458370F9B2
:01175A00226C
:1017DB008E0F8F10E5101510AE0F7002150F4E60A7
:0717EB000512174A80EE22EF
:08189500E4F559D2E9D2AF22BB
:10153500907FA5E020E6F9C2E9907FA5E04480F020
:10154500EF25E0907FA6F0907FA5E030E0F9907F51
:10155500A5E04440F0907FA5E020E6F9907FA5E066
:0615650030E1D6D2E922BC
:10163900A907907FA5E020E6F9E5597023907FA5D9
:10164900E04480F0E925E0907FA6F08D54AF03A92E
:10165900077555018A568957E4F558755901D322FA
:02166900C3229A
:1015A000A907907FA5E020E6F9E5597025907FA571
:1015B000E04480F0E925E04401907FA6F08D54AF2F
:1015C00003A9077555018A568957E4F558755903DB
:0415D000D322C3223D
:03004B000206CEDC
:1006CE00C0E0C083C082C085C084C086758600C06D
:1006DE00D075D000C000C001C002C003C006C00764
:1006EE00907FA5E030E2067559060207B9907FA506
:1006FE00E020E10CE559640260067559070207B95E
:10070E00AF59EF24FE605F14603624FE70030207BB
:10071E00AA24FC70030207B6240860030207B9ABD3
:10072E0055AA56A957AF5805588F827583001206E1
:10073E0050907FA6F0E55865547070755905806B22
:10074E00907FA6E0AB55AA56A957AE588E827583F8
:10075E000012067D755902E5546401704E907FA516
:10076E00E04420F08045E55424FEB55807907FA55F
:10077E00E04420F0E55414B5580A907FA5E04440BB
:10078E00F0755900907FA6E0AB55AA56A957AE5802
:10079E008E8275830012067D0558800F907FA5E02E
:1007AE004440F075590080037559005391DFD0070E
:1007BE00D006D003D002D001D000D0D0D086D084C5
:0907CE00D085D082D083D0E03246
:0216CC00A9076C
:1016CE00AE52AF538F828E83A3E064037017AD01C9
:1016DE0019ED7001228F828E83E07C002FFDEC3E8F
:0916EE00FEAF0580DF7E007F00E5
:0116F70022D0
:0214F400AD0742
:1014F600E4FCAE4FAF508F828E83A3E06402702A65
:10150600AB040CEBB50501228F828E83A3A3E0FA10
:10151600A3E08A17F5186217E5176218E51862172F
:0E1526002FFBE5173EFEAF0380CC7E007F005A
:011534002294
:1013E3001215A0E55924FA600E146006240770F361
:0C13F300D322E4F559D322E4F559D322AB
:10175B00121639E55924FA600E146006240770F34B
:0C176B00D322E4F559D322E4F559D3222F
:100ABD0012010001000000405E0901010100010268
:100ACD0000010902620003010080320904000002E6
:100ADD0003000000092110010001221C00070581FF
:100AED00034000040705020340000409040100024D
:100AFD0003010100092110010001223700070583C0
:100B0D00030800040705030308000A090402000195
:100B1D0003010200092110010001222C00070584A8
:100B2D000340000406A0FF0901A1010903090415F2
:100B3D0080257F750895088102090509069102C077
:100B4D0005010906A101050719E029E71500250191
:100B5D0075019508810275019508810119002965B6
:100B6D00750895068100050819012905750195057A
:100B7D00910295039101C005010902A1010901A18D
:100B8D000005091901290815002501950875018130
:100B9D00020501093009311581257F7508950281FE
:100BAD0006C0C00B310B4D0B841C372C0AE10B0119
:100BBD000B2104030904260349006E00740065002F
:100BCD006C006C00690054006F006F006C007300C6
:100BDD002C00200049006E0063002E002003490008
:100BED006E00740065006C006C0069004B006500C0
:0E0BFD007900730020005500530042000000F4
:0300000002113DAD
:0C113D00787FE4F6D8FD7581590211841A
:10054100E709F608DFFA8046E709F208DFFA803E9C
:1005510088828C83E709F0A3DFFA8032E309F60889
:10056100DFFA8078E309F208DFFA807088828C83F1
:10057100E309F0A3DFFA806489828A83E0A3F608A5
:10058100DFFA805889828A83E0A3F208DFFA804C7F
:1005910080D280FA80C680D4806980F28033801056
:1005A10080A680EA809A80A880DA80E280CA8033BF
:1005B10089828A83ECFAE493A3C8C582C8CCC58337
:1005C100CCF0A3C8C582C8CCC583CCDFE9DEE78007
:1005D1000D89828A83E493A3F608DFF9ECFAA9F086
:1005E100EDFB2289828A83ECFAE0A3C8C582C8CCDC
:1005F100C583CCF0A3C8C582C8CCC583CCDFEADEF5
:10060100E880DB89828A83E493A3F208DFF980CC56
:1006110088F0EF60010E4E60C388F0ED2402B4044F
:100621000050B9F582EB2402B4040050AF232345F6
:0606310082239005917385
:10063700BB010689828A83E0225002E722BBFE02C1
:09064700E32289828A83E49322F4
:10065000BB010CE58229F582E5833AF583E022505F
:1006600006E92582F8E622BBFE06E92582F8E222A9
:0D067000E58229F582E5833AF583E49322C3
:10067D00F8BB010DE58229F582E5833AF583E8F0B3
:10068D00225006E92582C8F622BBFE05E92582C85F
:02069D00F22247
:10069F00EF8DF0A4A8F0CF8CF0A428CE8DF0A42E6F
:0206AF00FE2229
:1006B100EB9FF5F0EA9E42F0E99D42F0E89C45F09F
:0106C1002216
:0C06C200A42582F582E5F03583F5832243
:10114900020EE7E493A3F8E493A34003F68001F2C7
:1011590008DFF48029E493A3F85407240CC8C333A7
:10116900C4540F4420C8834004F456800146F6DF76
:10117900E4800B0102040810204080901865E47E89
:10118900019360BCA3FF543F30E509541FFEE4936B
:10119900A360010ECF54C025E060A840B8E493A332
:1011A900FAE493A3F8E493A3C8C582C8CAC583CA5D
:1011B900F0A3C8C582C8CAC583CADFE9DEE780BE15
:011876000071
:00000001FF
